:020000020000FC
:100000002FEF2AB901E010E821E82BB90E94160071
:10001000000F1695202B212B2F3FB9F72BB90E94EB
:10002000360020E02BB90E942600ECCFAF93BF939F
:10003000CF93A1E1BCE3CCECCA95F1F7BA95E1F717
:10004000AA95D1F7CF91BF91AF9108956F937F9308
:100050008F9369E276E980E88A9571F77A9561F77E
:100060006A9551F78F917F916F9108953F934F93C8
:100070005F9332E54BE250E05A95F1F64A95E1F68E
:0E0080003A95D1F6C8955F914F913F910000DF
:00000001FF
